{
    "contractName": "AuthorsListContract",
    "abi": [
        {
            "inputs": [
                {
                    "internalType": "string",
                    "name": "authorName",
                    "type": "string"
                },
                {
                    "internalType": "address",
                    "name": "authorContractAddress",
                    "type": "address"
                }
            ],
            "name": "addAuthor",
            "outputs": [],
            "stateMutability": "nonpayable",
            "type": "function"
        },
        {
            "inputs": [
                {
                    "internalType": "string",
                    "name": "",
                    "type": "string"
                }
            ],
            "name": "subscriberMap",
            "outputs": [
                {
                    "internalType": "address",
                    "name": "",
                    "type": "address"
                }
            ],
            "stateMutability": "view",
            "type": "function"
        }
    ],
    "bytecode": "608060405234801561001057600080fd5b50610287806100206000396000f3fe608060405234801561001057600080fd5b50600436106100365760003560e01c8063a125ae931461003b578063b3141b3a14610050575b600080fd5b61004e610049366004610187565b6100a0565b005b61008461005e3660046101e5565b80516020818301810180516000825292820191909301209152546001600160a01b031681565b6040516001600160a01b03909116815260200160405180910390f35b806000836040516100b19190610222565b90815260405190819003602001902080546001600160a01b03929092166001600160a01b03199092169190911790555050565b634e487b7160e01b600052604160045260246000fd5b600082601f83011261010b57600080fd5b813567ffffffffffffffff80821115610126576101266100e4565b604051601f8301601f19908116603f0116810190828211818310171561014e5761014e6100e4565b8160405283815286602085880101111561016757600080fd5b836020870160208301376000602085830101528094505050505092915050565b6000806040838503121561019a57600080fd5b823567ffffffffffffffff8111156101b157600080fd5b6101bd858286016100fa565b92505060208301356001600160a01b03811681146101da57600080fd5b809150509250929050565b6000602082840312156101f757600080fd5b813567ffffffffffffffff81111561020e57600080fd5b61021a848285016100fa565b949350505050565b6000825160005b818110156102435760208186018101518583015201610229565b50600092019182525091905056fea2646970667358221220c21d1e73ffdbed70db067f2f268af6504e3c217915a97476e71c5620a56b84dc64736f6c63430008130033",
    "sourcePath": "/Users/bhavya/ethdenver_lessons/decentralized-substack/packages/hardhat/contracts/AuthorsContract.sol",
    "compiler": {
        "name": "solc",
        "version": "0.8.19+commit.7dd6d404"
    },
    "functionHashes": {
        "addAuthor(string,address)": "a125ae93",
        "subscriberMap(string)": "b3141b3a"
    },
    "gasEstimates": {
        "creation": {
            "codeDepositCost": "129400",
            "executionCost": "177",
            "totalCost": "129577"
        },
        "external": {
            "addAuthor(string,address)": "infinite",
            "subscriberMap(string)": "infinite"
        }
    }
}