{
    "contractName": "YourContract",
    "abi": [
        {
            "inputs": [
                {
                    "internalType": "address",
                    "name": "_owner",
                    "type": "address"
                },
                {
                    "internalType": "string",
                    "name": "_authorName",
                    "type": "string"
                },
                {
                    "internalType": "string",
                    "name": "_publicationName",
                    "type": "string"
                },
                {
                    "internalType": "uint256",
                    "name": "_subscriptionPrice",
                    "type": "uint256"
                }
            ],
            "stateMutability": "nonpayable",
            "type": "constructor"
        },
        {
            "anonymous": false,
            "inputs": [
                {
                    "indexed": false,
                    "internalType": "address",
                    "name": "subscriber",
                    "type": "address"
                },
                {
                    "indexed": false,
                    "internalType": "uint256",
                    "name": "extensionLength",
                    "type": "uint256"
                }
            ],
            "name": "newExtendSubscriptionEvent",
            "type": "event"
        },
        {
            "anonymous": false,
            "inputs": [
                {
                    "indexed": false,
                    "internalType": "string",
                    "name": "postAddress",
                    "type": "string"
                }
            ],
            "name": "newPost",
            "type": "event"
        },
        {
            "inputs": [],
            "name": "authorAddress",
            "outputs": [
                {
                    "internalType": "address",
                    "name": "",
                    "type": "address"
                }
            ],
            "stateMutability": "view",
            "type": "function"
        },
        {
            "inputs": [],
            "name": "authorName",
            "outputs": [
                {
                    "internalType": "string",
                    "name": "",
                    "type": "string"
                }
            ],
            "stateMutability": "view",
            "type": "function"
        },
        {
            "inputs": [
                {
                    "internalType": "uint256",
                    "name": "_newPrice",
                    "type": "uint256"
                }
            ],
            "name": "changePrice",
            "outputs": [],
            "stateMutability": "nonpayable",
            "type": "function"
        },
        {
            "inputs": [
                {
                    "internalType": "address",
                    "name": "_userAddress",
                    "type": "address"
                }
            ],
            "name": "checkSubscriber",
            "outputs": [
                {
                    "internalType": "bool",
                    "name": "",
                    "type": "bool"
                }
            ],
            "stateMutability": "view",
            "type": "function"
        },
        {
            "inputs": [],
            "name": "extendSubscription",
            "outputs": [
                {
                    "internalType": "uint256",
                    "name": "",
                    "type": "uint256"
                }
            ],
            "stateMutability": "payable",
            "type": "function"
        },
        {
            "inputs": [
                {
                    "internalType": "uint256",
                    "name": "",
                    "type": "uint256"
                }
            ],
            "name": "posts",
            "outputs": [
                {
                    "internalType": "string",
                    "name": "",
                    "type": "string"
                }
            ],
            "stateMutability": "view",
            "type": "function"
        },
        {
            "inputs": [],
            "name": "publicationName",
            "outputs": [
                {
                    "internalType": "string",
                    "name": "",
                    "type": "string"
                }
            ],
            "stateMutability": "view",
            "type": "function"
        },
        {
            "inputs": [
                {
                    "internalType": "string",
                    "name": "postAddress",
                    "type": "string"
                }
            ],
            "name": "publishPost",
            "outputs": [],
            "stateMutability": "nonpayable",
            "type": "function"
        },
        {
            "inputs": [],
            "name": "withdraw",
            "outputs": [],
            "stateMutability": "nonpayable",
            "type": "function"
        },
        {
            "stateMutability": "payable",
            "type": "receive"
        }
    ],
    "bytecode": "608060405260006003553480156200001657600080fd5b5060405162000bc538038062000bc5833981016040819052620000399162000146565b600080546001600160a01b0319166001600160a01b038616179055600162000062848262000267565b506003819055600262000076838262000267565b505050505062000333565b634e487b7160e01b600052604160045260246000fd5b600082601f830112620000a957600080fd5b81516001600160401b0380821115620000c657620000c662000081565b604051601f8301601f19908116603f01168101908282118183101715620000f157620000f162000081565b816040528381526020925086838588010111156200010e57600080fd5b600091505b8382101562000132578582018301518183018401529082019062000113565b600093810190920192909252949350505050565b600080600080608085870312156200015d57600080fd5b84516001600160a01b03811681146200017557600080fd5b60208601519094506001600160401b03808211156200019357600080fd5b620001a18883890162000097565b94506040870151915080821115620001b857600080fd5b50620001c78782880162000097565b606096909601519497939650505050565b600181811c90821680620001ed57607f821691505b6020821081036200020e57634e487b7160e01b600052602260045260246000fd5b50919050565b601f8211156200026257600081815260208120601f850160051c810160208610156200023d5750805b601f850160051c820191505b818110156200025e5782815560010162000249565b5050505b505050565b81516001600160401b0381111562000283576200028362000081565b6200029b81620002948454620001d8565b8462000214565b602080601f831160018114620002d35760008415620002ba5750858301515b600019600386901b1c1916600185901b1785556200025e565b600085815260208120601f198616915b828110156200030457888601518255948401946001909101908401620002e3565b5085821015620003235787850151600019600388901b60f8161c191681555b5050505050600190811b01905550565b61088280620003436000396000f3fe60806040526004361061008a5760003560e01c80633ccfd60b116100595780633ccfd60b146101465780636a64aabb1461015d57806386b4e2a014610172578063a2b40d1914610187578063c5719463146101a757600080fd5b806302a86781146100965780630b1e7f83146100d35780630c684c84146101005780631e5603181461011657600080fd5b3661009157005b600080fd5b3480156100a257600080fd5b506000546100b6906001600160a01b031681565b6040516001600160a01b0390911681526020015b60405180910390f35b3480156100df57600080fd5b506100f36100ee366004610516565b6101c7565b6040516100ca919061052f565b610108610273565b6040519081526020016100ca565b34801561012257600080fd5b5061013661013136600461057d565b610363565b60405190151581526020016100ca565b34801561015257600080fd5b5061015b610393565b005b34801561016957600080fd5b506100f3610463565b34801561017e57600080fd5b506100f3610470565b34801561019357600080fd5b5061015b6101a2366004610516565b61047d565b3480156101b357600080fd5b5061015b6101c23660046105c3565b6104ac565b600581815481106101d757600080fd5b9060005260206000200160009150905080546101f290610674565b80601f016020809104026020016040519081016040528092919081815260200182805461021e90610674565b801561026b5780601f106102405761010080835404028352916020019161026b565b820191906000526020600020905b81548152906001019060200180831161024e57829003601f168201915b505050505081565b6003546000908190156102ac5760035461028d90346106c4565b61029a90620151806106e6565b6102a590601e6106e6565b90506102b3565b50630de792005b336000908152600460205260409020544211156102e9576102d48142610703565b33600090815260046020526040902055610315565b33600090815260046020526040902054610304908290610703565b336000908152600460205260409020555b60408051338152602081018390527f9c2eb61217787b0ec7a9a9d8dff6caa1eed05fe619a4d816ab95d075e4c5adac910160405180910390a150503360009081526004602052604090205490565b6001600160a01b03811660009081526004602052604081205442111561038b57506000919050565b506001919050565b6000546001600160a01b031633146103c65760405162461bcd60e51b81526004016103bd90610716565b60405180910390fd5b600080546040516001600160a01b039091169047908381818185875af1925050503d8060008114610413576040519150601f19603f3d011682016040523d82523d6000602084013e610418565b606091505b50509050806104605760405162461bcd60e51b81526020600482015260146024820152732330b4b632b2103a379039b2b7321022ba3432b960611b60448201526064016103bd565b50565b600180546101f290610674565b600280546101f290610674565b6000546001600160a01b031633146104a75760405162461bcd60e51b81526004016103bd90610716565b600355565b6000546001600160a01b031633146104d65760405162461bcd60e51b81526004016103bd90610716565b600580546001810182556000919091527f036b6384b5eca791c62761152d0c79bb0604c104a5fb6f4eb0703f3154bb3db001610512828261078c565b5050565b60006020828403121561052857600080fd5b5035919050565b600060208083528351808285015260005b8181101561055c57858101830151858201604001528201610540565b506000604082860101526040601f19601f8301168501019250505092915050565b60006020828403121561058f57600080fd5b81356001600160a01b03811681146105a657600080fd5b9392505050565b634e487b7160e01b600052604160045260246000fd5b6000602082840312156105d557600080fd5b813567ffffffffffffffff808211156105ed57600080fd5b818401915084601f83011261060157600080fd5b813581811115610613576106136105ad565b604051601f8201601f19908116603f0116810190838211818310171561063b5761063b6105ad565b8160405282815287602084870101111561065457600080fd5b826020860160208301376000928101602001929092525095945050505050565b600181811c9082168061068857607f821691505b6020821081036106a857634e487b7160e01b600052602260045260246000fd5b50919050565b634e487b7160e01b600052601160045260246000fd5b6000826106e157634e487b7160e01b600052601260045260246000fd5b500490565b80820281158282048414176106fd576106fd6106ae565b92915050565b808201808211156106fd576106fd6106ae565b6020808252600d908201526c2737ba103a34329027bbb732b960991b604082015260600190565b601f82111561078757600081815260208120601f850160051c810160208610156107645750805b601f850160051c820191505b8181101561078357828155600101610770565b5050505b505050565b815167ffffffffffffffff8111156107a6576107a66105ad565b6107ba816107b48454610674565b8461073d565b602080601f8311600181146107ef57600084156107d75750858301515b600019600386901b1c1916600185901b178555610783565b600085815260208120601f198616915b8281101561081e578886015182559484019460019091019084016107ff565b508582101561083c5787850151600019600388901b60f8161c191681555b5050505050600190811b0190555056fea264697066735822122032996441f717df30559c7ad72b1fa3b03970e15f4e5392a7efe5666237941eea64736f6c63430008130033",
    "sourcePath": "/Users/bhavya/ethdenver_lessons/decentralized-substack/packages/hardhat/contracts/YourContract.sol",
    "compiler": {
        "name": "solc",
        "version": "0.8.19+commit.7dd6d404"
    },
    "functionHashes": {
        "authorAddress()": "02a86781",
        "authorName()": "6a64aabb",
        "changePrice(uint256)": "a2b40d19",
        "checkSubscriber(address)": "1e560318",
        "extendSubscription()": "0c684c84",
        "posts(uint256)": "0b1e7f83",
        "publicationName()": "86b4e2a0",
        "publishPost(string)": "c5719463",
        "withdraw()": "3ccfd60b"
    },
    "gasEstimates": {
        "creation": {
            "codeDepositCost": "435600",
            "executionCost": "infinite",
            "totalCost": "infinite"
        },
        "external": {
            "authorAddress()": "2327",
            "authorName()": "infinite",
            "changePrice(uint256)": "24530",
            "checkSubscriber(address)": "2622",
            "extendSubscription()": "32479",
            "posts(uint256)": "infinite",
            "publicationName()": "infinite",
            "publishPost(string)": "infinite",
            "withdraw()": "infinite"
        }
    }
}